{
  "contractName": "Music",
  "abi": [
    {
      "inputs": [],
      "stateMutability": "nonpayable",
      "type": "constructor"
    },
    {
      "inputs": [
        {
          "internalType": "uint256",
          "name": "",
          "type": "uint256"
        }
      ],
      "name": "artist_likes",
      "outputs": [
        {
          "internalType": "string",
          "name": "artistName",
          "type": "string"
        },
        {
          "internalType": "uint256",
          "name": "likes",
          "type": "uint256"
        }
      ],
      "stateMutability": "view",
      "type": "function",
      "constant": true
    },
    {
      "inputs": [
        {
          "internalType": "string",
          "name": "",
          "type": "string"
        },
        {
          "internalType": "uint256",
          "name": "",
          "type": "uint256"
        }
      ],
      "name": "artist_song_mapping",
      "outputs": [
        {
          "internalType": "string",
          "name": "songTitle",
          "type": "string"
        },
        {
          "internalType": "string",
          "name": "songProducer",
          "type": "string"
        },
        {
          "internalType": "string",
          "name": "songArtist",
          "type": "string"
        },
        {
          "internalType": "string",
          "name": "songDate",
          "type": "string"
        },
        {
          "internalType": "string",
          "name": "genre",
          "type": "string"
        },
        {
          "internalType": "string",
          "name": "albumName",
          "type": "string"
        },
        {
          "internalType": "string",
          "name": "hash_",
          "type": "string"
        },
        {
          "internalType": "uint256",
          "name": "likes",
          "type": "uint256"
        }
      ],
      "stateMutability": "view",
      "type": "function",
      "constant": true
    },
    {
      "inputs": [
        {
          "internalType": "uint256",
          "name": "",
          "type": "uint256"
        }
      ],
      "name": "artists",
      "outputs": [
        {
          "internalType": "string",
          "name": "",
          "type": "string"
        }
      ],
      "stateMutability": "view",
      "type": "function",
      "constant": true
    },
    {
      "inputs": [
        {
          "internalType": "uint256",
          "name": "",
          "type": "uint256"
        }
      ],
      "name": "bestSongs",
      "outputs": [
        {
          "internalType": "string",
          "name": "",
          "type": "string"
        }
      ],
      "stateMutability": "view",
      "type": "function",
      "constant": true
    },
    {
      "inputs": [
        {
          "internalType": "string",
          "name": "",
          "type": "string"
        },
        {
          "internalType": "uint256",
          "name": "",
          "type": "uint256"
        }
      ],
      "name": "genre_song_mapping",
      "outputs": [
        {
          "internalType": "string",
          "name": "songTitle",
          "type": "string"
        },
        {
          "internalType": "string",
          "name": "songProducer",
          "type": "string"
        },
        {
          "internalType": "string",
          "name": "songArtist",
          "type": "string"
        },
        {
          "internalType": "string",
          "name": "songDate",
          "type": "string"
        },
        {
          "internalType": "string",
          "name": "genre",
          "type": "string"
        },
        {
          "internalType": "string",
          "name": "albumName",
          "type": "string"
        },
        {
          "internalType": "string",
          "name": "hash_",
          "type": "string"
        },
        {
          "internalType": "uint256",
          "name": "likes",
          "type": "uint256"
        }
      ],
      "stateMutability": "view",
      "type": "function",
      "constant": true
    },
    {
      "inputs": [
        {
          "internalType": "uint256",
          "name": "",
          "type": "uint256"
        }
      ],
      "name": "listener_count",
      "outputs": [
        {
          "internalType": "address",
          "name": "listener",
          "type": "address"
        },
        {
          "internalType": "uint256",
          "name": "count",
          "type": "uint256"
        }
      ],
      "stateMutability": "view",
      "type": "function",
      "constant": true
    },
    {
      "inputs": [
        {
          "internalType": "uint256",
          "name": "",
          "type": "uint256"
        }
      ],
      "name": "songHashes",
      "outputs": [
        {
          "internalType": "string",
          "name": "",
          "type": "string"
        }
      ],
      "stateMutability": "view",
      "type": "function",
      "constant": true
    },
    {
      "inputs": [
        {
          "internalType": "uint256",
          "name": "",
          "type": "uint256"
        }
      ],
      "name": "songTitles",
      "outputs": [
        {
          "internalType": "string",
          "name": "",
          "type": "string"
        }
      ],
      "stateMutability": "view",
      "type": "function",
      "constant": true
    },
    {
      "inputs": [
        {
          "internalType": "uint256",
          "name": "",
          "type": "uint256"
        }
      ],
      "name": "song_likes",
      "outputs": [
        {
          "internalType": "string",
          "name": "songName",
          "type": "string"
        },
        {
          "internalType": "uint256",
          "name": "likes",
          "type": "uint256"
        }
      ],
      "stateMutability": "view",
      "type": "function",
      "constant": true
    },
    {
      "inputs": [],
      "name": "getAllArtists",
      "outputs": [
        {
          "internalType": "string[]",
          "name": "",
          "type": "string[]"
        }
      ],
      "stateMutability": "view",
      "type": "function",
      "constant": true
    },
    {
      "inputs": [],
      "name": "getAllSongs",
      "outputs": [
        {
          "internalType": "string[]",
          "name": "",
          "type": "string[]"
        }
      ],
      "stateMutability": "view",
      "type": "function",
      "constant": true
    },
    {
      "inputs": [
        {
          "internalType": "string",
          "name": "artistName",
          "type": "string"
        }
      ],
      "name": "getArtistSongs",
      "outputs": [
        {
          "internalType": "string[]",
          "name": "",
          "type": "string[]"
        }
      ],
      "stateMutability": "view",
      "type": "function",
      "constant": true
    },
    {
      "inputs": [
        {
          "internalType": "string",
          "name": "songName",
          "type": "string"
        }
      ],
      "name": "getSongsArtist",
      "outputs": [
        {
          "internalType": "string",
          "name": "artistName",
          "type": "string"
        }
      ],
      "stateMutability": "view",
      "type": "function",
      "constant": true
    },
    {
      "inputs": [
        {
          "internalType": "string",
          "name": "songName",
          "type": "string"
        }
      ],
      "name": "getSongsProducer",
      "outputs": [
        {
          "internalType": "string",
          "name": "producer",
          "type": "string"
        }
      ],
      "stateMutability": "view",
      "type": "function",
      "constant": true
    },
    {
      "inputs": [
        {
          "internalType": "string",
          "name": "songName",
          "type": "string"
        }
      ],
      "name": "getSongsGenre",
      "outputs": [
        {
          "internalType": "string",
          "name": "genre",
          "type": "string"
        }
      ],
      "stateMutability": "view",
      "type": "function",
      "constant": true
    },
    {
      "inputs": [
        {
          "internalType": "string",
          "name": "songName",
          "type": "string"
        }
      ],
      "name": "getSongsAlbumName",
      "outputs": [
        {
          "internalType": "string",
          "name": "aname",
          "type": "string"
        }
      ],
      "stateMutability": "view",
      "type": "function",
      "constant": true
    },
    {
      "inputs": [
        {
          "internalType": "string",
          "name": "songName",
          "type": "string"
        }
      ],
      "name": "getSongsLikes",
      "outputs": [
        {
          "internalType": "uint256",
          "name": "likes",
          "type": "uint256"
        }
      ],
      "stateMutability": "view",
      "type": "function",
      "constant": true
    },
    {
      "inputs": [
        {
          "internalType": "string",
          "name": "songName",
          "type": "string"
        }
      ],
      "name": "getSongsDate",
      "outputs": [
        {
          "internalType": "string",
          "name": "date_val",
          "type": "string"
        }
      ],
      "stateMutability": "view",
      "type": "function",
      "constant": true
    },
    {
      "inputs": [
        {
          "internalType": "string",
          "name": "_genre",
          "type": "string"
        }
      ],
      "name": "getGenreSongs",
      "outputs": [
        {
          "components": [
            {
              "internalType": "string",
              "name": "songTitle",
              "type": "string"
            },
            {
              "internalType": "string",
              "name": "songProducer",
              "type": "string"
            },
            {
              "internalType": "string",
              "name": "songArtist",
              "type": "string"
            },
            {
              "internalType": "string",
              "name": "songDate",
              "type": "string"
            },
            {
              "internalType": "string",
              "name": "genre",
              "type": "string"
            },
            {
              "internalType": "string",
              "name": "albumName",
              "type": "string"
            },
            {
              "internalType": "string",
              "name": "hash_",
              "type": "string"
            },
            {
              "internalType": "uint256",
              "name": "likes",
              "type": "uint256"
            },
            {
              "internalType": "address[]",
              "name": "likedBy",
              "type": "address[]"
            }
          ],
          "internalType": "struct Music.Music_data[]",
          "name": "",
          "type": "tuple[]"
        }
      ],
      "stateMutability": "view",
      "type": "function",
      "constant": true
    },
    {
      "inputs": [
        {
          "internalType": "string",
          "name": "_artist",
          "type": "string"
        },
        {
          "internalType": "string",
          "name": "_song",
          "type": "string"
        }
      ],
      "name": "likeSong",
      "outputs": [],
      "stateMutability": "nonpayable",
      "type": "function"
    },
    {
      "inputs": [
        {
          "internalType": "uint256",
          "name": "k",
          "type": "uint256"
        }
      ],
      "name": "getTopKSongs",
      "outputs": [
        {
          "components": [
            {
              "internalType": "string",
              "name": "songName",
              "type": "string"
            },
            {
              "internalType": "uint256",
              "name": "likes",
              "type": "uint256"
            }
          ],
          "internalType": "struct Music.songLikes[]",
          "name": "",
          "type": "tuple[]"
        }
      ],
      "stateMutability": "view",
      "type": "function",
      "constant": true
    },
    {
      "inputs": [
        {
          "internalType": "uint256",
          "name": "k",
          "type": "uint256"
        }
      ],
      "name": "getTopArtists",
      "outputs": [
        {
          "components": [
            {
              "internalType": "string",
              "name": "artistName",
              "type": "string"
            },
            {
              "internalType": "uint256",
              "name": "likes",
              "type": "uint256"
            }
          ],
          "internalType": "struct Music.artistLikes[]",
          "name": "",
          "type": "tuple[]"
        }
      ],
      "stateMutability": "view",
      "type": "function",
      "constant": true
    },
    {
      "inputs": [],
      "name": "listenToSong",
      "outputs": [],
      "stateMutability": "nonpayable",
      "type": "function"
    },
    {
      "inputs": [
        {
          "internalType": "uint256",
          "name": "k",
          "type": "uint256"
        }
      ],
      "name": "getTopListeners",
      "outputs": [
        {
          "components": [
            {
              "internalType": "address",
              "name": "listener",
              "type": "address"
            },
            {
              "internalType": "uint256",
              "name": "count",
              "type": "uint256"
            }
          ],
          "internalType": "struct Music.listenerCount[]",
          "name": "",
          "type": "tuple[]"
        }
      ],
      "stateMutability": "view",
      "type": "function",
      "constant": true
    },
    {
      "inputs": [
        {
          "internalType": "string",
          "name": "_songTitle",
          "type": "string"
        },
        {
          "internalType": "string",
          "name": "_songProducer",
          "type": "string"
        },
        {
          "internalType": "string",
          "name": "_songArtist",
          "type": "string"
        },
        {
          "internalType": "string",
          "name": "_songDate",
          "type": "string"
        },
        {
          "internalType": "string",
          "name": "_genre",
          "type": "string"
        },
        {
          "internalType": "string",
          "name": "_albumName",
          "type": "string"
        },
        {
          "internalType": "string",
          "name": "_hash_",
          "type": "string"
        }
      ],
      "name": "addMusicContent",
      "outputs": [],
      "stateMutability": "nonpayable",
      "type": "function"
    },
    {
      "inputs": [
        {
          "internalType": "string",
          "name": "songName",
          "type": "string"
        }
      ],
      "name": "getURLofSong",
      "outputs": [
        {
          "internalType": "string",
          "name": "",
          "type": "string"
        }
      ],
      "stateMutability": "view",
      "type": "function",
      "constant": true
    }
  ],
  "bytecode": "0x608060405234801561001057600080fd5b506158a180620000216000396000f3fe608060405234801561001057600080fd5b506004361061018e5760003560e01c80639cfdf05c116100de578063ce4a4cb811610097578063e7cbaa4311610071578063e7cbaa4314610564578063f2b59ee814610594578063f7f9eee7146105c4578063f803ace3146105f45761018e565b8063ce4a4cb8146104e8578063d5d8e3fa14610518578063d74378e2146105485761018e565b80639cfdf05c146103c8578063c5d555ca146103f8578063c67664ab14610428578063ca17c42114610458578063ca9fef4914610488578063cd7e10c1146104b85761018e565b80634ef0257b1161014b5780636cacc793116101255780636cacc793146102ff5780638792dd481461032f5780638e2dfc0e1461036657806398d59e35146103975761018e565b80634ef0257b1461026e578063596e49a41461029f578063649ef617146102cf5761018e565b80631b5575ff14610193578063291d0faa146101c357806329ef6862146101f35780633608359114610211578063403447f11461022d57806343e1982414610264575b600080fd5b6101ad60048036038101906101a8919061459e565b610612565b6040516101ba91906146f9565b60405180910390f35b6101dd60048036038101906101d89190614861565b610825565b6040516101ea91906149f4565b60405180910390f35b6101fb6109df565b60405161020891906149f4565b60405180910390f35b61022b60048036038101906102269190614a16565b610ab8565b005b61024760048036038101906102429190614a8e565b6110ed565b60405161025b989796959493929190614b43565b60405180910390f35b61026c611520565b005b6102886004803603810190610283919061459e565b6116b3565b604051610296929190614c01565b60405180910390f35b6102b960048036038101906102b49190614861565b611707565b6040516102c69190614e91565b60405180910390f35b6102e960048036038101906102e49190614861565b611c1b565b6040516102f69190614eb3565b60405180910390f35b6103196004803603810190610314919061459e565b611e29565b6040516103269190614eb3565b60405180910390f35b61034960048036038101906103449190614a8e565b611ed5565b60405161035d989796959493929190614b43565b60405180910390f35b610380600480360381019061037b919061459e565b612308565b60405161038e929190614ed5565b60405180910390f35b6103b160048036038101906103ac919061459e565b6123c4565b6040516103bf929190614ed5565b60405180910390f35b6103e260048036038101906103dd9190614861565b612480565b6040516103ef9190614eb3565b60405180910390f35b610412600480360381019061040d9190614861565b61268e565b60405161041f9190614eb3565b60405180910390f35b610442600480360381019061043d9190614861565b61289c565b60405161044f9190614f05565b60405180910390f35b610472600480360381019061046d9190614861565b612a22565b60405161047f9190614eb3565b60405180910390f35b6104a2600480360381019061049d919061459e565b612c2e565b6040516104af9190614eb3565b60405180910390f35b6104d260048036038101906104cd919061459e565b612cda565b6040516104df9190614eb3565b60405180910390f35b61050260048036038101906104fd9190614861565b612d86565b60405161050f9190614eb3565b60405180910390f35b610532600480360381019061052d919061459e565b612f94565b60405161053f919061501f565b60405180910390f35b610562600480360381019061055d9190615041565b6131e3565b005b61057e6004803603810190610579919061459e565b613646565b60405161058b9190614eb3565b60405180910390f35b6105ae60048036038101906105a9919061459e565b6136f2565b6040516105bb91906152a6565b60405180910390f35b6105de60048036038101906105d99190614861565b613941565b6040516105eb9190614eb3565b60405180910390f35b6105fc613b4f565b60405161060991906149f4565b60405180910390f35b606060088054905082111561062657600080fd5b60008267ffffffffffffffff81111561064257610641614736565b5b60405190808252806020026020018201604052801561067b57816020015b6106686143c3565b8152602001906001900390816106605790505b509050600060088054905067ffffffffffffffff81111561069f5761069e614736565b5b6040519080825280602002602001820160405280156106d857816020015b6106c56143c3565b8152602001906001900390816106bd5790505b50905060005b6008805490508110156107a957600881815481106106ff576106fe6152c8565b5b90600052602060002090600202016040518060400160405290816000820160009054906101000a900473ffffffffffffffffffffffffffffffffffffffff1673ffffffffffffffffffffffffffffffffffffffff1673ffffffffffffffffffffffffffffffffffffffff16815260200160018201548152505082828151811061078b5761078a6152c8565b5b602002602001018190525080806107a190615326565b9150506106de565b506107c3816000600184516107be919061536f565b613c28565b60005b8481101561081a578181815181106107e1576107e06152c8565b5b60200260200101518382815181106107fc576107fb6152c8565b5b6020026020010181905250808061081290615326565b9150506107c6565b508192505050919050565b60608161083181613dce565b61083a57600080fd5b600060068460405161084c91906153df565b90815260200160405180910390208054905067ffffffffffffffff81111561087757610876614736565b5b6040519080825280602002602001820160405280156108aa57816020015b60608152602001906001900390816108955790505b50905060005b6006856040516108c091906153df565b9081526020016040518091039020805490508110156109d4576006856040516108e991906153df565b90815260200160405180910390208181548110610909576109086152c8565b5b9060005260206000209060090201600001805461092590615425565b80601f016020809104026020016040519081016040528092919081815260200182805461095190615425565b801561099e5780601f106109735761010080835404028352916020019161099e565b820191906000526020600020905b81548152906001019060200180831161098157829003601f168201915b50505050508282815181106109b6576109b56152c8565b5b602002602001018190525080806109cc90615326565b9150506108b0565b508092505050919050565b60606000805480602002602001604051908101604052809291908181526020016000905b82821015610aaf578382906000526020600020018054610a2290615425565b80601f0160208091040260200160405190810160405280929190818152602001828054610a4e90615425565b8015610a9b5780601f10610a7057610100808354040283529160200191610a9b565b820191906000526020600020905b815481529060010190602001808311610a7e57829003601f168201915b505050505081526020019060010190610a03565b50505050905090565b80610ac281613e4c565b610acb57600080fd5b82610ad581613dce565b610ade57600080fd5b60005b600685604051610af191906153df565b9081526020016040518091039020805490508110156110e6578380519060200120600686604051610b2291906153df565b90815260200160405180910390208281548110610b4257610b416152c8565b5b9060005260206000209060090201600001604051610b6091906154f6565b604051809103902014156110d3576001600686604051610b8091906153df565b90815260200160405180910390208281548110610ba057610b9f6152c8565b5b90600052602060002090600902016007016000828254610bc0919061550d565b92505081905550610bd2338683613eca565b15610bdc57600080fd5b600685604051610bec91906153df565b90815260200160405180910390208181548110610c0c57610c0b6152c8565b5b9060005260206000209060090201600801339080600181540180825580915050600190039060005260206000200160009091909190916101000a81548173ffffffffffffffffffffffffffffffffffffffff021916908373ffffffffffffffffffffffffffffffffffffffff1602179055506000805b600480549050811015610d2c57858051906020012060048281548110610cab57610caa6152c8565b5b9060005260206000209060020201600001604051610cc991906154f6565b60405180910390201415610d1957600160048281548110610ced57610cec6152c8565b5b90600052602060002090600202016001016000828254610d0d919061550d565b92505081905550600191505b8080610d2490615326565b915050610c82565b5080610ea65760046040518060400160405280600689604051610d4f91906153df565b90815260200160405180910390208581548110610d6f57610d6e6152c8565b5b90600052602060002090600902016000018054610d8b90615425565b80601f0160208091040260200160405190810160405280929190818152602001828054610db790615425565b8015610e045780601f10610dd957610100808354040283529160200191610e04565b820191906000526020600020905b815481529060010190602001808311610de757829003601f168201915b50505050508152602001600689604051610e1e91906153df565b90815260200160405180910390208581548110610e3e57610e3d6152c8565b5b90600052602060002090600902016007015481525090806001815401808255809150506001900390600052602060002090600202016000909190919091506000820151816000019080519060200190610e989291906143f3565b506020820151816001015550505b6000905060005b600580549050811015610f5757868051906020012060058281548110610ed657610ed56152c8565b5b9060005260206000209060020201600001604051610ef491906154f6565b60405180910390201415610f4457600160058281548110610f1857610f176152c8565b5b90600052602060002090600202016001016000828254610f38919061550d565b92505081905550600191505b8080610f4f90615326565b915050610ead565b50806110d15760056040518060400160405280600689604051610f7a91906153df565b90815260200160405180910390208581548110610f9a57610f996152c8565b5b90600052602060002090600902016002018054610fb690615425565b80601f0160208091040260200160405190810160405280929190818152602001828054610fe290615425565b801561102f5780601f106110045761010080835404028352916020019161102f565b820191906000526020600020905b81548152906001019060200180831161101257829003601f168201915b5050505050815260200160068960405161104991906153df565b90815260200160405180910390208581548110611069576110686152c8565b5b906000526020600020906009020160070154815250908060018154018082558091505060019003906000526020600020906002020160009091909190915060008201518160000190805190602001906110c39291906143f3565b506020820151816001015550505b505b80806110de90615326565b915050610ae1565b5050505050565b600682805160208101820180518482526020830160208501208183528095505050505050818154811061111f57600080fd5b90600052602060002090600902016000915091505080600001805461114390615425565b80601f016020809104026020016040519081016040528092919081815260200182805461116f90615425565b80156111bc5780601f10611191576101008083540402835291602001916111bc565b820191906000526020600020905b81548152906001019060200180831161119f57829003601f168201915b5050505050908060010180546111d190615425565b80601f01602080910402602001604051908101604052809291908181526020018280546111fd90615425565b801561124a5780601f1061121f5761010080835404028352916020019161124a565b820191906000526020600020905b81548152906001019060200180831161122d57829003601f168201915b50505050509080600201805461125f90615425565b80601f016020809104026020016040519081016040528092919081815260200182805461128b90615425565b80156112d85780601f106112ad576101008083540402835291602001916112d8565b820191906000526020600020905b8154815290600101906020018083116112bb57829003601f168201915b5050505050908060030180546112ed90615425565b80601f016020809104026020016040519081016040528092919081815260200182805461131990615425565b80156113665780601f1061133b57610100808354040283529160200191611366565b820191906000526020600020905b81548152906001019060200180831161134957829003601f168201915b50505050509080600401805461137b90615425565b80601f01602080910402602001604051908101604052809291908181526020018280546113a790615425565b80156113f45780601f106113c9576101008083540402835291602001916113f4565b820191906000526020600020905b8154815290600101906020018083116113d757829003601f168201915b50505050509080600501805461140990615425565b80601f016020809104026020016040519081016040528092919081815260200182805461143590615425565b80156114825780601f1061145757610100808354040283529160200191611482565b820191906000526020600020905b81548152906001019060200180831161146557829003601f168201915b50505050509080600601805461149790615425565b80601f01602080910402602001604051908101604052809291908181526020018280546114c390615425565b80156115105780601f106114e557610100808354040283529160200191611510565b820191906000526020600020905b8154815290600101906020018083116114f357829003601f168201915b5050505050908060070154905088565b6000805b6008805490508110156115ff573373ffffffffffffffffffffffffffffffffffffffff166008828154811061155c5761155b6152c8565b5b906000526020600020906002020160000160009054906101000a900473ffffffffffffffffffffffffffffffffffffffff1673ffffffffffffffffffffffffffffffffffffffff1614156115ec57600191506001600882815481106115c4576115c36152c8565b5b906000526020600020906002020160010160008282546115e4919061550d565b925050819055505b80806115f790615326565b915050611524565b50806116b057600860405180604001604052803373ffffffffffffffffffffffffffffffffffffffff1681526020016001815250908060018154018082558091505060019003906000526020600020906002020160009091909190915060008201518160000160006101000a81548173ffffffffffffffffffffffffffffffffffffffff021916908373ffffffffffffffffffffffffffffffffffffffff1602179055506020820151816001015550505b50565b600881815481106116c357600080fd5b90600052602060002090600202016000915090508060000160009054906101000a900473ffffffffffffffffffffffffffffffffffffffff16908060010154905082565b606060078260405161171991906153df565b9081526020016040518091039020805480602002602001604051908101604052809291908181526020016000905b82821015611c1057838290600052602060002090600902016040518061012001604052908160008201805461177b90615425565b80601f01602080910402602001604051908101604052809291908181526020018280546117a790615425565b80156117f45780601f106117c9576101008083540402835291602001916117f4565b820191906000526020600020905b8154815290600101906020018083116117d757829003601f168201915b5050505050815260200160018201805461180d90615425565b80601f016020809104026020016040519081016040528092919081815260200182805461183990615425565b80156118865780601f1061185b57610100808354040283529160200191611886565b820191906000526020600020905b81548152906001019060200180831161186957829003601f168201915b5050505050815260200160028201805461189f90615425565b80601f01602080910402602001604051908101604052809291908181526020018280546118cb90615425565b80156119185780601f106118ed57610100808354040283529160200191611918565b820191906000526020600020905b8154815290600101906020018083116118fb57829003601f168201915b5050505050815260200160038201805461193190615425565b80601f016020809104026020016040519081016040528092919081815260200182805461195d90615425565b80156119aa5780601f1061197f576101008083540402835291602001916119aa565b820191906000526020600020905b81548152906001019060200180831161198d57829003601f168201915b505050505081526020016004820180546119c390615425565b80601f01602080910402602001604051908101604052809291908181526020018280546119ef90615425565b8015611a3c5780601f10611a1157610100808354040283529160200191611a3c565b820191906000526020600020905b815481529060010190602001808311611a1f57829003601f168201915b50505050508152602001600582018054611a5590615425565b80601f0160208091040260200160405190810160405280929190818152602001828054611a8190615425565b8015611ace5780601f10611aa357610100808354040283529160200191611ace565b820191906000526020600020905b815481529060010190602001808311611ab157829003601f168201915b50505050508152602001600682018054611ae790615425565b80601f0160208091040260200160405190810160405280929190818152602001828054611b1390615425565b8015611b605780601f10611b3557610100808354040283529160200191611b60565b820191906000526020600020905b815481529060010190602001808311611b4357829003601f168201915b505050505081526020016007820154815260200160088201805480602002602001604051908101604052809291908181526020018280548015611bf857602002820191906000526020600020905b8160009054906101000a900473ffffffffffffffffffffffffffffffffffffffff1673ffffffffffffffffffffffffffffffffffffffff1681526020019060010190808311611bae575b50505050508152505081526020019060010190611747565b505050509050919050565b606081611c2781613e4c565b611c3057600080fd5b60005b600280549050811015611e215760005b600660028381548110611c5957611c586152c8565b5b90600052602060002001604051611c7091906155f7565b908152602001604051809103902080549050811015611e0d578480519060200120600660028481548110611ca757611ca66152c8565b5b90600052602060002001604051611cbe91906155f7565b90815260200160405180910390208281548110611cde57611cdd6152c8565b5b9060005260206000209060090201600001604051611cfc91906154f6565b60405180910390201415611dfa57600660028381548110611d2057611d1f6152c8565b5b90600052602060002001604051611d3791906155f7565b90815260200160405180910390208181548110611d5757611d566152c8565b5b90600052602060002090600902016005018054611d7390615425565b80601f0160208091040260200160405190810160405280929190818152602001828054611d9f90615425565b8015611dec5780601f10611dc157610100808354040283529160200191611dec565b820191906000526020600020905b815481529060010190602001808311611dcf57829003601f168201915b505050505093505050611e23565b8080611e0590615326565b915050611c43565b508080611e1990615326565b915050611c33565b505b50919050565b60008181548110611e3957600080fd5b906000526020600020016000915090508054611e5490615425565b80601f0160208091040260200160405190810160405280929190818152602001828054611e8090615425565b8015611ecd5780601f10611ea257610100808354040283529160200191611ecd565b820191906000526020600020905b815481529060010190602001808311611eb057829003601f168201915b505050505081565b6007828051602081018201805184825260208301602085012081835280955050505050508181548110611f0757600080fd5b906000526020600020906009020160009150915050806000018054611f2b90615425565b80601f0160208091040260200160405190810160405280929190818152602001828054611f5790615425565b8015611fa45780601f10611f7957610100808354040283529160200191611fa4565b820191906000526020600020905b815481529060010190602001808311611f8757829003601f168201915b505050505090806001018054611fb990615425565b80601f0160208091040260200160405190810160405280929190818152602001828054611fe590615425565b80156120325780601f1061200757610100808354040283529160200191612032565b820191906000526020600020905b81548152906001019060200180831161201557829003601f168201915b50505050509080600201805461204790615425565b80601f016020809104026020016040519081016040528092919081815260200182805461207390615425565b80156120c05780601f10612095576101008083540402835291602001916120c0565b820191906000526020600020905b8154815290600101906020018083116120a357829003601f168201915b5050505050908060030180546120d590615425565b80601f016020809104026020016040519081016040528092919081815260200182805461210190615425565b801561214e5780601f106121235761010080835404028352916020019161214e565b820191906000526020600020905b81548152906001019060200180831161213157829003601f168201915b50505050509080600401805461216390615425565b80601f016020809104026020016040519081016040528092919081815260200182805461218f90615425565b80156121dc5780601f106121b1576101008083540402835291602001916121dc565b820191906000526020600020905b8154815290600101906020018083116121bf57829003601f168201915b5050505050908060050180546121f190615425565b80601f016020809104026020016040519081016040528092919081815260200182805461221d90615425565b801561226a5780601f1061223f5761010080835404028352916020019161226a565b820191906000526020600020905b81548152906001019060200180831161224d57829003601f168201915b50505050509080600601805461227f90615425565b80601f01602080910402602001604051908101604052809291908181526020018280546122ab90615425565b80156122f85780601f106122cd576101008083540402835291602001916122f8565b820191906000526020600020905b8154815290600101906020018083116122db57829003601f168201915b5050505050908060070154905088565b6004818154811061231857600080fd5b906000526020600020906002020160009150905080600001805461233b90615425565b80601f016020809104026020016040519081016040528092919081815260200182805461236790615425565b80156123b45780601f10612389576101008083540402835291602001916123b4565b820191906000526020600020905b81548152906001019060200180831161239757829003601f168201915b5050505050908060010154905082565b600581815481106123d457600080fd5b90600052602060002090600202016000915090508060000180546123f790615425565b80601f016020809104026020016040519081016040528092919081815260200182805461242390615425565b80156124705780601f1061244557610100808354040283529160200191612470565b820191906000526020600020905b81548152906001019060200180831161245357829003601f168201915b5050505050908060010154905082565b60608161248c81613e4c565b61249557600080fd5b60005b6002805490508110156126865760005b6006600283815481106124be576124bd6152c8565b5b906000526020600020016040516124d591906155f7565b90815260200160405180910390208054905081101561267257848051906020012060066002848154811061250c5761250b6152c8565b5b9060005260206000200160405161252391906155f7565b90815260200160405180910390208281548110612543576125426152c8565b5b906000526020600020906009020160000160405161256191906154f6565b6040518091039020141561265f57600660028381548110612585576125846152c8565b5b9060005260206000200160405161259c91906155f7565b908152602001604051809103902081815481106125bc576125bb6152c8565b5b906000526020600020906009020160010180546125d890615425565b80601f016020809104026020016040519081016040528092919081815260200182805461260490615425565b80156126515780601f1061262657610100808354040283529160200191612651565b820191906000526020600020905b81548152906001019060200180831161263457829003601f168201915b505050505093505050612688565b808061266a90615326565b9150506124a8565b50808061267e90615326565b915050612498565b505b50919050565b60608161269a81613e4c565b6126a357600080fd5b60005b6002805490508110156128945760005b6006600283815481106126cc576126cb6152c8565b5b906000526020600020016040516126e391906155f7565b90815260200160405180910390208054905081101561288057848051906020012060066002848154811061271a576127196152c8565b5b9060005260206000200160405161273191906155f7565b90815260200160405180910390208281548110612751576127506152c8565b5b906000526020600020906009020160000160405161276f91906154f6565b6040518091039020141561286d57600660028381548110612793576127926152c8565b5b906000526020600020016040516127aa91906155f7565b908152602001604051809103902081815481106127ca576127c96152c8565b5b906000526020600020906009020160020180546127e690615425565b80601f016020809104026020016040519081016040528092919081815260200182805461281290615425565b801561285f5780601f106128345761010080835404028352916020019161285f565b820191906000526020600020905b81548152906001019060200180831161284257829003601f168201915b505050505093505050612896565b808061287890615326565b9150506126b6565b50808061288c90615326565b9150506126a6565b505b50919050565b6000816128a881613e4c565b6128b157600080fd5b60005b600280549050811015612a1a5760005b6006600283815481106128da576128d96152c8565b5b906000526020600020016040516128f191906155f7565b908152602001604051809103902080549050811015612a06578480519060200120600660028481548110612928576129276152c8565b5b9060005260206000200160405161293f91906155f7565b9081526020016040518091039020828154811061295f5761295e6152c8565b5b906000526020600020906009020160000160405161297d91906154f6565b604051809103902014156129f3576006600283815481106129a1576129a06152c8565b5b906000526020600020016040516129b891906155f7565b908152602001604051809103902081815481106129d8576129d76152c8565b5b90600052602060002090600902016007015493505050612a1c565b80806129fe90615326565b9150506128c4565b508080612a1290615326565b9150506128b4565b505b50919050565b606060005b600280549050811015612c155760005b600660028381548110612a4d57612a4c6152c8565b5b90600052602060002001604051612a6491906155f7565b908152602001604051809103902080549050811015612c01578380519060200120600660028481548110612a9b57612a9a6152c8565b5b90600052602060002001604051612ab291906155f7565b90815260200160405180910390208281548110612ad257612ad16152c8565b5b9060005260206000209060090201600001604051612af091906154f6565b60405180910390201415612bee57600660028381548110612b1457612b136152c8565b5b90600052602060002001604051612b2b91906155f7565b90815260200160405180910390208181548110612b4b57612b4a6152c8565b5b90600052602060002090600902016006018054612b6790615425565b80601f0160208091040260200160405190810160405280929190818152602001828054612b9390615425565b8015612be05780601f10612bb557610100808354040283529160200191612be0565b820191906000526020600020905b815481529060010190602001808311612bc357829003601f168201915b505050505092505050612c29565b8080612bf990615326565b915050612a37565b508080612c0d90615326565b915050612a27565b506040518060200160405280600081525090505b919050565b60038181548110612c3e57600080fd5b906000526020600020016000915090508054612c5990615425565b80601f0160208091040260200160405190810160405280929190818152602001828054612c8590615425565b8015612cd25780601f10612ca757610100808354040283529160200191612cd2565b820191906000526020600020905b815481529060010190602001808311612cb557829003601f168201915b505050505081565b60028181548110612cea57600080fd5b906000526020600020016000915090508054612d0590615425565b80601f0160208091040260200160405190810160405280929190818152602001828054612d3190615425565b8015612d7e5780601f10612d5357610100808354040283529160200191612d7e565b820191906000526020600020905b815481529060010190602001808311612d6157829003601f168201915b505050505081565b606081612d9281613e4c565b612d9b57600080fd5b60005b600280549050811015612f8c5760005b600660028381548110612dc457612dc36152c8565b5b90600052602060002001604051612ddb91906155f7565b908152602001604051809103902080549050811015612f78578480519060200120600660028481548110612e1257612e116152c8565b5b90600052602060002001604051612e2991906155f7565b90815260200160405180910390208281548110612e4957612e486152c8565b5b9060005260206000209060090201600001604051612e6791906154f6565b60405180910390201415612f6557600660028381548110612e8b57612e8a6152c8565b5b90600052602060002001604051612ea291906155f7565b90815260200160405180910390208181548110612ec257612ec16152c8565b5b90600052602060002090600902016003018054612ede90615425565b80601f0160208091040260200160405190810160405280929190818152602001828054612f0a90615425565b8015612f575780601f10612f2c57610100808354040283529160200191612f57565b820191906000526020600020905b815481529060010190602001808311612f3a57829003601f168201915b505050505093505050612f8e565b8080612f7090615326565b915050612dae565b508080612f8490615326565b915050612d9e565b505b50919050565b6060600580549050821115612fa857600080fd5b60008267ffffffffffffffff811115612fc457612fc3614736565b5b604051908082528060200260200182016040528015612ffd57816020015b612fea614479565b815260200190600190039081612fe25790505b509050600060058054905067ffffffffffffffff81111561302157613020614736565b5b60405190808252806020026020018201604052801561305a57816020015b613047614479565b81526020019060019003908161303f5790505b50905060005b6002805490508110156131675760058181548110613081576130806152c8565b5b90600052602060002090600202016040518060400160405290816000820180546130aa90615425565b80601f01602080910402602001604051908101604052809291908181526020018280546130d690615425565b80156131235780601f106130f857610100808354040283529160200191613123565b820191906000526020600020905b81548152906001019060200180831161310657829003601f168201915b50505050508152602001600182015481525050828281518110613149576131486152c8565b5b6020026020010181905250808061315f90615326565b915050613060565b506131818160006001845161317c919061536f565b613ff9565b60005b848110156131d85781818151811061319f5761319e6152c8565b5b60200260200101518382815181106131ba576131b96152c8565b5b602002602001018190525080806131d090615326565b915050613184565b508192505050919050565b806131ed8161419f565b156131f757600080fd5b8761320181613e4c565b1561320b57600080fd5b6000899080600181540180825580915050600190039060005260206000200160009091909190915090805190602001906132469291906143f3565b506001839080600181540180825580915050600190039060005260206000200160009091909190915090805190602001906132829291906143f3565b5060006001905060005b6002805490508110156132f2578880519060200120600282815481106132b5576132b46152c8565b5b906000526020600020016040516132cc91906154f6565b604051809103902014156132df57600091505b80806132ea90615326565b91505061328c565b5060011515811515141561333d5760028890806001815401808255809150506001900390600052602060002001600090919091909150908051906020019061333b9291906143f3565b505b606060068960405161334f91906153df565b90815260200160405180910390206040518061012001604052808d81526020018c81526020018b81526020018a81526020018981526020018881526020018781526020016000815260200183815250908060018154018082558091505060019003906000526020600020906009020160009091909190915060008201518160000190805190602001906133e39291906143f3565b5060208201518160010190805190602001906134009291906143f3565b50604082015181600201908051906020019061341d9291906143f3565b50606082015181600301908051906020019061343a9291906143f3565b5060808201518160040190805190602001906134579291906143f3565b5060a08201518160050190805190602001906134749291906143f3565b5060c08201518160060190805190602001906134919291906143f3565b5060e082015181600701556101008201518160080190805190602001906134b9929190614493565b5050506007876040516134cc91906153df565b90815260200160405180910390206040518061012001604052808d81526020018c81526020018b81526020018a81526020018981526020018881526020018781526020016000815260200183815250908060018154018082558091505060019003906000526020600020906009020160009091909190915060008201518160000190805190602001906135609291906143f3565b50602082015181600101908051906020019061357d9291906143f3565b50604082015181600201908051906020019061359a9291906143f3565b5060608201518160030190805190602001906135b79291906143f3565b5060808201518160040190805190602001906135d49291906143f3565b5060a08201518160050190805190602001906135f19291906143f3565b5060c082015181600601908051906020019061360e9291906143f3565b5060e08201518160070155610100820151816008019080519060200190613636929190614493565b5050505050505050505050505050565b6001818154811061365657600080fd5b90600052602060002001600091509050805461367190615425565b80601f016020809104026020016040519081016040528092919081815260200182805461369d90615425565b80156136ea5780601f106136bf576101008083540402835291602001916136ea565b820191906000526020600020905b8154815290600101906020018083116136cd57829003601f168201915b505050505081565b606060048054905082111561370657600080fd5b60008267ffffffffffffffff81111561372257613721614736565b5b60405190808252806020026020018201604052801561375b57816020015b61374861451d565b8152602001906001900390816137405790505b509050600060048054905067ffffffffffffffff81111561377f5761377e614736565b5b6040519080825280602002602001820160405280156137b857816020015b6137a561451d565b81526020019060019003908161379d5790505b50905060005b6004805490508110156138c557600481815481106137df576137de6152c8565b5b906000526020600020906002020160405180604001604052908160008201805461380890615425565b80601f016020809104026020016040519081016040528092919081815260200182805461383490615425565b80156138815780601f1061385657610100808354040283529160200191613881565b820191906000526020600020905b81548152906001019060200180831161386457829003601f168201915b505050505081526020016001820154815250508282815181106138a7576138a66152c8565b5b602002602001018190525080806138bd90615326565b9150506137be565b506138df816000600184516138da919061536f565b61421d565b60005b84811015613936578181815181106138fd576138fc6152c8565b5b6020026020010151838281518110613918576139176152c8565b5b6020026020010181905250808061392e90615326565b9150506138e2565b508192505050919050565b60608161394d81613e4c565b61395657600080fd5b60005b600280549050811015613b475760005b60066002838154811061397f5761397e6152c8565b5b9060005260206000200160405161399691906155f7565b908152602001604051809103902080549050811015613b335784805190602001206006600284815481106139cd576139cc6152c8565b5b906000526020600020016040516139e491906155f7565b90815260200160405180910390208281548110613a0457613a036152c8565b5b9060005260206000209060090201600001604051613a2291906154f6565b60405180910390201415613b2057600660028381548110613a4657613a456152c8565b5b90600052602060002001604051613a5d91906155f7565b90815260200160405180910390208181548110613a7d57613a7c6152c8565b5b90600052602060002090600902016004018054613a9990615425565b80601f0160208091040260200160405190810160405280929190818152602001828054613ac590615425565b8015613b125780601f10613ae757610100808354040283529160200191613b12565b820191906000526020600020905b815481529060010190602001808311613af557829003601f168201915b505050505093505050613b49565b8080613b2b90615326565b915050613969565b508080613b3f90615326565b915050613959565b505b50919050565b60606002805480602002602001604051908101604052809291908181526020016000905b82821015613c1f578382906000526020600020018054613b9290615425565b80601f0160208091040260200160405190810160405280929190818152602001828054613bbe90615425565b8015613c0b5780601f10613be057610100808354040283529160200191613c0b565b820191906000526020600020905b815481529060010190602001808311613bee57829003601f168201915b505050505081526020019060010190613b73565b50505050905090565b6000829050600082905080821415613c41575050613dc9565b60008560028686613c529190615618565b613c5c91906156db565b86613c679190615745565b81518110613c7857613c776152c8565b5b60200260200101516020015190505b818313613d9d575b80868481518110613ca357613ca26152c8565b5b6020026020010151602001511115613cc8578280613cc0906157d9565b935050613c8f565b5b858281518110613cdc57613cdb6152c8565b5b602002602001015160200151811115613d02578180613cfa90615822565b925050613cc9565b818313613d9857858281518110613d1c57613d1b6152c8565b5b6020026020010151868481518110613d3757613d366152c8565b5b6020026020010151878581518110613d5257613d516152c8565b5b60200260200101888581518110613d6c57613d6b6152c8565b5b6020026020010182905282905250508280613d86906157d9565b9350508180613d9490615822565b9250505b613c87565b81851215613db157613db0868684613c28565b5b83831215613dc557613dc4868486613c28565b5b5050505b505050565b600080600090505b600280549050811015613e4157828051906020012060028281548110613dff57613dfe6152c8565b5b90600052602060002001604051613e1691906154f6565b60405180910390201415613e2e576001915050613e47565b8080613e3990615326565b915050613dd6565b50600090505b919050565b600080600090505b600080549050811015613ebf57828051906020012060008281548110613e7d57613e7c6152c8565b5b90600052602060002001604051613e9491906154f6565b60405180910390201415613eac576001915050613ec5565b8080613eb790615326565b915050613e54565b50600090505b919050565b600080600090505b600684604051613ee291906153df565b90815260200160405180910390208381548110613f0257613f016152c8565b5b906000526020600020906009020160080180549050811015613fec578473ffffffffffffffffffffffffffffffffffffffff16600685604051613f4591906153df565b90815260200160405180910390208481548110613f6557613f646152c8565b5b90600052602060002090600902016008018281548110613f8857613f876152c8565b5b9060005260206000200160009054906101000a900473ffffffffffffffffffffffffffffffffffffffff1673ffffffffffffffffffffffffffffffffffffffff161415613fd9576001915050613ff2565b8080613fe490615326565b915050613ed2565b50600090505b9392505050565b600082905060008290508082141561401257505061419a565b600085600286866140239190615618565b61402d91906156db565b866140389190615745565b81518110614049576140486152c8565b5b60200260200101516020015190505b81831361416e575b80868481518110614074576140736152c8565b5b6020026020010151602001511115614099578280614091906157d9565b935050614060565b5b8582815181106140ad576140ac6152c8565b5b6020026020010151602001518111156140d35781806140cb90615822565b92505061409a565b818313614169578582815181106140ed576140ec6152c8565b5b6020026020010151868481518110614108576141076152c8565b5b6020026020010151878581518110614123576141226152c8565b5b6020026020010188858151811061413d5761413c6152c8565b5b6020026020010182905282905250508280614157906157d9565b935050818061416590615822565b9250505b614058565b8185121561418257614181868684613ff9565b5b8383121561419657614195868486613ff9565b5b5050505b505050565b600080600090505b600180549050811015614212578280519060200120600182815481106141d0576141cf6152c8565b5b906000526020600020016040516141e791906154f6565b604051809103902014156141ff576001915050614218565b808061420a90615326565b9150506141a7565b50600090505b919050565b60008290506000829050808214156142365750506143be565b600085600286866142479190615618565b61425191906156db565b8661425c9190615745565b8151811061426d5761426c6152c8565b5b60200260200101516020015190505b818313614392575b80868481518110614298576142976152c8565b5b60200260200101516020015111156142bd5782806142b5906157d9565b935050614284565b5b8582815181106142d1576142d06152c8565b5b6020026020010151602001518111156142f75781806142ef90615822565b9250506142be565b81831361438d57858281518110614311576143106152c8565b5b602002602001015186848151811061432c5761432b6152c8565b5b6020026020010151878581518110614347576143466152c8565b5b60200260200101888581518110614361576143606152c8565b5b602002602001018290528290525050828061437b906157d9565b935050818061438990615822565b9250505b61427c565b818512156143a6576143a586868461421d565b5b838312156143ba576143b986848661421d565b5b5050505b505050565b6040518060400160405280600073ffffffffffffffffffffffffffffffffffffffff168152602001600081525090565b8280546143ff90615425565b90600052602060002090601f0160209004810192826144215760008555614468565b82601f1061443a57805160ff1916838001178555614468565b82800160010185558215614468579182015b8281111561446757825182559160200191906001019061444c565b5b5090506144759190614537565b5090565b604051806040016040528060608152602001600081525090565b82805482825590600052602060002090810192821561450c579160200282015b8281111561450b5782518260006101000a81548173ffffffffffffffffffffffffffffffffffffffff021916908373ffffffffffffffffffffffffffffffffffffffff160217905550916020019190600101906144b3565b5b5090506145199190614537565b5090565b604051806040016040528060608152602001600081525090565b5b80821115614550576000816000905550600101614538565b5090565b6000604051905090565b600080fd5b600080fd5b6000819050919050565b61457b81614568565b811461458657600080fd5b50565b60008135905061459881614572565b92915050565b6000602082840312156145b4576145b361455e565b5b60006145c284828501614589565b91505092915050565b600081519050919050565b600082825260208201905092915050565b6000819050602082019050919050565b600073ffffffffffffffffffffffffffffffffffffffff82169050919050565b6000614622826145f7565b9050919050565b61463281614617565b82525050565b61464181614568565b82525050565b60408201600082015161465d6000850182614629565b5060208201516146706020850182614638565b50505050565b60006146828383614647565b60408301905092915050565b6000602082019050919050565b60006146a6826145cb565b6146b081856145d6565b93506146bb836145e7565b8060005b838110156146ec5781516146d38882614676565b97506146de8361468e565b9250506001810190506146bf565b5085935050505092915050565b60006020820190508181036000830152614713818461469b565b905092915050565b600080fd5b600080fd5b6000601f19601f8301169050919050565b7f4e487b7100000000000000000000000000000000000000000000000000000000600052604160045260246000fd5b61476e82614725565b810181811067ffffffffffffffff8211171561478d5761478c614736565b5b80604052505050565b60006147a0614554565b90506147ac8282614765565b919050565b600067ffffffffffffffff8211156147cc576147cb614736565b5b6147d582614725565b9050602081019050919050565b82818337600083830152505050565b60006148046147ff846147b1565b614796565b9050828152602081018484840111156148205761481f614720565b5b61482b8482856147e2565b509392505050565b600082601f8301126148485761484761471b565b5b81356148588482602086016147f1565b91505092915050565b6000602082840312156148775761487661455e565b5b600082013567ffffffffffffffff81111561489557614894614563565b5b6148a184828501614833565b91505092915050565b600081519050919050565b600082825260208201905092915050565b6000819050602082019050919050565b600081519050919050565b600082825260208201905092915050565b60005b838110156149105780820151818401526020810190506148f5565b8381111561491f576000848401525b50505050565b6000614930826148d6565b61493a81856148e1565b935061494a8185602086016148f2565b61495381614725565b840191505092915050565b600061496a8383614925565b905092915050565b6000602082019050919050565b600061498a826148aa565b61499481856148b5565b9350836020820285016149a6856148c6565b8060005b858110156149e257848403895281516149c3858261495e565b94506149ce83614972565b925060208a019950506001810190506149aa565b50829750879550505050505092915050565b60006020820190508181036000830152614a0e818461497f565b905092915050565b60008060408385031215614a2d57614a2c61455e565b5b600083013567ffffffffffffffff811115614a4b57614a4a614563565b5b614a5785828601614833565b925050602083013567ffffffffffffffff811115614a7857614a77614563565b5b614a8485828601614833565b9150509250929050565b60008060408385031215614aa557614aa461455e565b5b600083013567ffffffffffffffff811115614ac357614ac2614563565b5b614acf85828601614833565b9250506020614ae085828601614589565b9150509250929050565b600082825260208201905092915050565b6000614b06826148d6565b614b108185614aea565b9350614b208185602086016148f2565b614b2981614725565b840191505092915050565b614b3d81614568565b82525050565b6000610100820190508181036000830152614b5e818b614afb565b90508181036020830152614b72818a614afb565b90508181036040830152614b868189614afb565b90508181036060830152614b9a8188614afb565b90508181036080830152614bae8187614afb565b905081810360a0830152614bc28186614afb565b905081810360c0830152614bd68185614afb565b9050614be560e0830184614b34565b9998505050505050505050565b614bfb81614617565b82525050565b6000604082019050614c166000830185614bf2565b614c236020830184614b34565b9392505050565b600081519050919050565b600082825260208201905092915050565b6000819050602082019050919050565b600081519050919050565b600082825260208201905092915050565b6000819050602082019050919050565b6000614c8e8383614629565b60208301905092915050565b6000602082019050919050565b6000614cb282614c56565b614cbc8185614c61565b9350614cc783614c72565b8060005b83811015614cf8578151614cdf8882614c82565b9750614cea83614c9a565b925050600181019050614ccb565b5085935050505092915050565b6000610120830160008301518482036000860152614d238282614925565b91505060208301518482036020860152614d3d8282614925565b91505060408301518482036040860152614d578282614925565b91505060608301518482036060860152614d718282614925565b91505060808301518482036080860152614d8b8282614925565b91505060a083015184820360a0860152614da58282614925565b91505060c083015184820360c0860152614dbf8282614925565b91505060e0830151614dd460e0860182614638565b50610100830151848203610100860152614dee8282614ca7565b9150508091505092915050565b6000614e078383614d05565b905092915050565b6000602082019050919050565b6000614e2782614c2a565b614e318185614c35565b935083602082028501614e4385614c46565b8060005b85811015614e7f5784840389528151614e608582614dfb565b9450614e6b83614e0f565b925060208a01995050600181019050614e47565b50829750879550505050505092915050565b60006020820190508181036000830152614eab8184614e1c565b905092915050565b60006020820190508181036000830152614ecd8184614afb565b905092915050565b60006040820190508181036000830152614eef8185614afb565b9050614efe6020830184614b34565b9392505050565b6000602082019050614f1a6000830184614b34565b92915050565b600081519050919050565b600082825260208201905092915050565b6000819050602082019050919050565b60006040830160008301518482036000860152614f698282614925565b9150506020830151614f7e6020860182614638565b508091505092915050565b6000614f958383614f4c565b905092915050565b6000602082019050919050565b6000614fb582614f20565b614fbf8185614f2b565b935083602082028501614fd185614f3c565b8060005b8581101561500d5784840389528151614fee8582614f89565b9450614ff983614f9d565b925060208a01995050600181019050614fd5565b50829750879550505050505092915050565b600060208201905081810360008301526150398184614faa565b905092915050565b600080600080600080600060e0888a0312156150605761505f61455e565b5b600088013567ffffffffffffffff81111561507e5761507d614563565b5b61508a8a828b01614833565b975050602088013567ffffffffffffffff8111156150ab576150aa614563565b5b6150b78a828b01614833565b965050604088013567ffffffffffffffff8111156150d8576150d7614563565b5b6150e48a828b01614833565b955050606088013567ffffffffffffffff81111561510557615104614563565b5b6151118a828b01614833565b945050608088013567ffffffffffffffff81111561513257615131614563565b5b61513e8a828b01614833565b93505060a088013567ffffffffffffffff81111561515f5761515e614563565b5b61516b8a828b01614833565b92505060c088013567ffffffffffffffff81111561518c5761518b614563565b5b6151988a828b01614833565b91505092959891949750929550565b600081519050919050565b600082825260208201905092915050565b6000819050602082019050919050565b600060408301600083015184820360008601526151f08282614925565b91505060208301516152056020860182614638565b508091505092915050565b600061521c83836151d3565b905092915050565b6000602082019050919050565b600061523c826151a7565b61524681856151b2565b935083602082028501615258856151c3565b8060005b8581101561529457848403895281516152758582615210565b945061528083615224565b925060208a0199505060018101905061525c565b50829750879550505050505092915050565b600060208201905081810360008301526152c08184615231565b905092915050565b7f4e487b7100000000000000000000000000000000000000000000000000000000600052603260045260246000fd5b7f4e487b7100000000000000000000000000000000000000000000000000000000600052601160045260246000fd5b600061533182614568565b91507fffffffffffffffffffffffffffffffffffffffffffffffffffffffffffffffff821415615364576153636152f7565b5b600182019050919050565b600061537a82614568565b915061538583614568565b925082821015615398576153976152f7565b5b828203905092915050565b600081905092915050565b60006153b9826148d6565b6153c381856153a3565b93506153d38185602086016148f2565b80840191505092915050565b60006153eb82846153ae565b915081905092915050565b7f4e487b7100000000000000000000000000000000000000000000000000000000600052602260045260246000fd5b6000600282049050600182168061543d57607f821691505b60208210811415615451576154506153f6565b5b50919050565b600081905092915050565b60008190508160005260206000209050919050565b6000815461548481615425565b61548e8186615457565b945060018216600081146154a957600181146154ba576154ed565b60ff198316865281860193506154ed565b6154c385615462565b60005b838110156154e5578154818901526001820191506020810190506154c6565b838801955050505b50505092915050565b60006155028284615477565b915081905092915050565b600061551882614568565b915061552383614568565b9250827fffffffffffffffffffffffffffffffffffffffffffffffffffffffffffffffff03821115615558576155576152f7565b5b828201905092915050565b60008190508160005260206000209050919050565b6000815461558581615425565b61558f81866153a3565b945060018216600081146155aa57600181146155bb576155ee565b60ff198316865281860193506155ee565b6155c485615563565b60005b838110156155e6578154818901526001820191506020810190506155c7565b838801955050505b50505092915050565b60006156038284615578565b915081905092915050565b6000819050919050565b60006156238261560e565b915061562e8361560e565b9250827f800000000000000000000000000000000000000000000000000000000000000001821260008412151615615669576156686152f7565b5b827f7fffffffffffffffffffffffffffffffffffffffffffffffffffffffffffffff0182136000841216156156a1576156a06152f7565b5b828203905092915050565b7f4e487b7100000000000000000000000000000000000000000000000000000000600052601260045260246000fd5b60006156e68261560e565b91506156f18361560e565b925082615701576157006156ac565b5b600160000383147f80000000000000000000000000000000000000000000000000000000000000008314161561573a576157396152f7565b5b828205905092915050565b60006157508261560e565b915061575b8361560e565b9250817f7fffffffffffffffffffffffffffffffffffffffffffffffffffffffffffffff03831360008312151615615796576157956152f7565b5b817f80000000000000000000000000000000000000000000000000000000000000000383126000831216156157ce576157cd6152f7565b5b828201905092915050565b60006157e48261560e565b91507f7fffffffffffffffffffffffffffffffffffffffffffffffffffffffffffffff821415615817576158166152f7565b5b600182019050919050565b600061582d8261560e565b91507f80000000000000000000000000000000000000000000000000000000000000008214156158605761585f6152f7565b5b60018203905091905056fea2646970667358221220a78d31a2b5997b484861c04ccf3fec3c93a8e932753ee2cbec643a78f0dd16d164736f6c634300080a0033",
  "immutableReferences": {},
  "source": "// SPDX-License-Identifier: MIT\r\npragma solidity >=0.4.22 <0.9.0;\r\n\r\ncontract Music{\r\n     // List of Song titles\r\n    string [] public songTitles;\r\n    string [] public songHashes;\r\n    string [] public artists;\r\n    string [] public bestSongs;\r\n    songLikes [] public song_likes;\r\n    artistLikes [] public artist_likes;\r\n    // Map the artist to the song\r\n    mapping(string=>Music_data[]) public artist_song_mapping;\r\n    // Map the genre to the song\r\n    mapping(string=>Music_data[]) public genre_song_mapping;\r\n    // listeners list\r\n    listenerCount [] public listener_count;\r\n\r\n    struct songLikes{\r\n        string songName;\r\n        uint likes;\r\n    }\r\n    struct listenerCount{\r\n        address listener;\r\n        uint count;\r\n    }\r\n    struct artistLikes{\r\n        string artistName;\r\n        uint likes;\r\n    }\r\n    struct Music_data{\r\n        string songTitle;\r\n        string songProducer;\r\n        string songArtist;\r\n        string songDate;\r\n        string genre;\r\n        string albumName;\r\n        string hash_;\r\n        uint256 likes;\r\n        address [] likedBy;\r\n    }\r\n\r\n    constructor(){\r\n\r\n    }\r\n\r\n    function songExists(string memory title) private view returns (bool){\r\n        for (uint i=0;i<songTitles.length;i++){\r\n            if (keccak256(bytes(songTitles[i])) == keccak256(bytes(title))){\r\n                return true;\r\n            }\r\n        }\r\n        return false;\r\n    }\r\n    function songHashExists(string memory hash_) private view returns (bool){\r\n        for (uint i=0;i<songHashes.length;i++){\r\n            if (keccak256(bytes(songHashes[i])) == keccak256(bytes(hash_))){\r\n                return true;\r\n            }\r\n        }\r\n        return false;\r\n    }\r\n    function artistExists(string memory _name) private view returns(bool){\r\n        for (uint i=0;i<artists.length;i++){\r\n            if(keccak256(bytes(artists[i])) == keccak256(bytes(_name))){\r\n                return true;\r\n            }\r\n        }\r\n        return false;\r\n    }\r\n    \r\n    modifier onlyUniqueHash(string memory _hash){\r\n        require(!songHashExists(_hash));\r\n        _;\r\n    }\r\n    modifier onlyUniqueSongTitle(string memory _name){\r\n        require(!songExists(_name));\r\n        _;\r\n    }\r\n    modifier validArtist(string memory _name){\r\n        require(artistExists(_name));\r\n        _;\r\n    }\r\n    modifier validSong(string memory _song){\r\n        require(songExists(_song));\r\n        _;\r\n    }\r\n\r\n    function getAllArtists() view public returns(string [] memory){\r\n        return artists;\r\n    }\r\n    function getAllSongs()view public returns(string [] memory){\r\n        return songTitles;\r\n    }\r\n    function getArtistSongs(string memory artistName)view public validArtist(artistName)\r\n     returns (string [] memory) {\r\n         string [] memory songsOfArtist = new string[](artist_song_mapping[artistName].length);\r\n         for(uint i=0;i<artist_song_mapping[artistName].length;i++){\r\n             songsOfArtist[i] = artist_song_mapping[artistName][i].songTitle;\r\n         }\r\n         return songsOfArtist;\r\n        // return artist_song_mapping[artistName];\r\n    }\r\n    function getSongsArtist(string memory songName) view public validSong(songName)\r\n    returns(string memory artistName){\r\n        // string memory artistName;\r\n        for(uint i=0;i<artists.length;i++){\r\n            for(uint j=0;j<artist_song_mapping[artists[i]].length;j++){\r\n                if(keccak256(bytes(artist_song_mapping[artists[i]][j].songTitle)) == keccak256(bytes(songName))){\r\n                    artistName = artist_song_mapping[artists[i]][j].songArtist;\r\n                    return artistName;\r\n                }\r\n            }\r\n        }\r\n    }\r\n    function getSongsProducer(string memory songName) view public validSong(songName)\r\n    returns(string memory producer){\r\n        // string memory producer;\r\n        for(uint i=0;i<artists.length;i++){\r\n            for(uint j=0;j<artist_song_mapping[artists[i]].length;j++){\r\n                if(keccak256(bytes(artist_song_mapping[artists[i]][j].songTitle)) == keccak256(bytes(songName))){\r\n                    producer = artist_song_mapping[artists[i]][j].songProducer;\r\n                    return producer;\r\n                }\r\n            }\r\n        }\r\n    }\r\n    function getSongsGenre(string memory songName) view public validSong(songName)\r\n    returns(string memory genre){\r\n        // string memory genre;\r\n        for(uint i=0;i<artists.length;i++){\r\n            for(uint j=0;j<artist_song_mapping[artists[i]].length;j++){\r\n                if(keccak256(bytes(artist_song_mapping[artists[i]][j].songTitle)) == keccak256(bytes(songName))){\r\n                    genre = artist_song_mapping[artists[i]][j].genre;\r\n                    return genre;\r\n                }\r\n            }\r\n        }\r\n    }\r\n    function getSongsAlbumName(string memory songName) view public validSong(songName)\r\n    returns(string memory aname){\r\n        // string memory aname;\r\n        for(uint i=0;i<artists.length;i++){\r\n            for(uint j=0;j<artist_song_mapping[artists[i]].length;j++){\r\n                if(keccak256(bytes(artist_song_mapping[artists[i]][j].songTitle)) == keccak256(bytes(songName))){\r\n                    aname = artist_song_mapping[artists[i]][j].albumName;\r\n                    return aname;\r\n                }\r\n            }\r\n        }\r\n    }\r\n    \r\n    function getSongsLikes(string memory songName) view public validSong(songName)\r\n    returns(uint256 likes){\r\n        // uint likes;\r\n        for(uint i=0;i<artists.length;i++){\r\n            for(uint j=0;j<artist_song_mapping[artists[i]].length;j++){\r\n                if(keccak256(bytes(artist_song_mapping[artists[i]][j].songTitle)) == keccak256(bytes(songName))){\r\n                    likes = artist_song_mapping[artists[i]][j].likes;\r\n                    return likes;\r\n                }\r\n            }\r\n        }\r\n    }\r\n    function getSongsDate(string memory songName) view public validSong(songName)\r\n    returns(string memory date_val){\r\n        // string memory date_val;\r\n        for(uint i=0;i<artists.length;i++){\r\n            for(uint j=0;j<artist_song_mapping[artists[i]].length;j++){\r\n                if(keccak256(bytes(artist_song_mapping[artists[i]][j].songTitle)) == keccak256(bytes(songName))){\r\n                    date_val = artist_song_mapping[artists[i]][j].songDate;\r\n                    return date_val;\r\n                }\r\n            }\r\n        }\r\n    }\r\n\r\n    function getGenreSongs(string memory _genre) view public returns(Music_data [] memory){\r\n        return genre_song_mapping[_genre];\r\n    }\r\n\r\n    function hasAlreadyBeenLiked(address personAddr, string memory _artist, uint i) view private returns(bool){\r\n        for(uint k=0; k< artist_song_mapping[_artist][i].likedBy.length; k++){\r\n            if(artist_song_mapping[_artist][i].likedBy[k] == personAddr){\r\n                return true;\r\n            }\r\n        }\r\n        return false;\r\n    }\r\n    function likeSong(string memory _artist, string memory _song)public validSong(_song) validArtist(_artist){\r\n        \r\n        for (uint i=0; i<artist_song_mapping[_artist].length;i++){\r\n            if(keccak256(bytes(artist_song_mapping[_artist][i].songTitle)) ==\r\n             keccak256(bytes(_song))){\r\n                 artist_song_mapping[_artist][i].likes += 1;\r\n                 // Check if the user hasn't previously liked this song\r\n                 require(!hasAlreadyBeenLiked(msg.sender,_artist,i));\r\n                 artist_song_mapping[_artist][i].likedBy.push(msg.sender);\r\n                 bool found = false;\r\n                 for(uint x =0; x<song_likes.length;x++){\r\n                     if(keccak256(bytes(song_likes[x].songName)) == keccak256(bytes(_song))){\r\n                        song_likes[x].likes += 1 ; // Increment the likes\r\n                        found = true;\r\n                     }\r\n                 }\r\n                 // If song not already in the songs list then add them here\r\n                 if(!found){\r\n                    song_likes.push(songLikes(artist_song_mapping[_artist][i].songTitle, artist_song_mapping[_artist][i].likes));\r\n                 }\r\n                 found = false;\r\n                for(uint x =0; x<artist_likes.length;x++){\r\n                     if(keccak256(bytes(artist_likes[x].artistName)) == keccak256(bytes(_artist))){\r\n                        artist_likes[x].likes += 1 ; // Increment the likes\r\n                        found = true;\r\n                     }\r\n                 }\r\n                 // If song not already in the songs list then add them here\r\n                 if(!found){\r\n                    artist_likes.push(artistLikes(artist_song_mapping[_artist][i].songArtist, artist_song_mapping[_artist][i].likes));\r\n                 }\r\n             }\r\n        }\r\n    }\r\n    function quickSort(songLikes[] memory arr, int left, int right) pure private {\r\n        int i = left;\r\n        int j = right;\r\n        if (i == j) return;\r\n        uint pivot = arr[uint(left + (right - left) / 2)].likes;\r\n        while (i <= j) {\r\n            while (arr[uint(i)].likes > pivot) i++;\r\n            while (pivot > arr[uint(j)].likes) j--;\r\n            if (i <= j) {\r\n                (arr[uint(i)], arr[uint(j)]) = (arr[uint(j)], arr[uint(i)]);\r\n                i++;\r\n                j--;\r\n            }\r\n        }\r\n        if (left < j)\r\n            quickSort(arr, left, j);\r\n        if (i < right)\r\n            quickSort(arr, i, right);\r\n    }\r\n    \r\n    function quickSortListeners(listenerCount[] memory arr, int left, int right) pure private {\r\n        int i = left;\r\n        int j = right;\r\n        if (i == j) return;\r\n        uint pivot = arr[uint(left + (right - left) / 2)].count;\r\n        while (i <= j) {\r\n            while (arr[uint(i)].count > pivot) i++;\r\n            while (pivot > arr[uint(j)].count) j--;\r\n            if (i <= j) {\r\n                (arr[uint(i)], arr[uint(j)]) = (arr[uint(j)], arr[uint(i)]);\r\n                i++;\r\n                j--;\r\n            }\r\n        }\r\n        if (left < j)\r\n            quickSortListeners(arr, left, j);\r\n        if (i < right)\r\n            quickSortListeners(arr, i, right);\r\n    }\r\n    function quickSortArtists(artistLikes[] memory arr, int left, int right) pure private {\r\n        int i = left;\r\n        int j = right;\r\n        if (i == j) return;\r\n        uint pivot = arr[uint(left + (right - left) / 2)].likes;\r\n        while (i <= j) {\r\n            while (arr[uint(i)].likes > pivot) i++;\r\n            while (pivot > arr[uint(j)].likes) j--;\r\n            if (i <= j) {\r\n                (arr[uint(i)], arr[uint(j)]) = (arr[uint(j)], arr[uint(i)]);\r\n                i++;\r\n                j--;\r\n            }\r\n        }\r\n        if (left < j)\r\n            quickSortArtists(arr, left, j);\r\n        if (i < right)\r\n            quickSortArtists(arr, i, right);\r\n    }\r\n    \r\n    function getTopKSongs(uint k) public view returns (songLikes [] memory){\r\n        require(k<=song_likes.length);\r\n        songLikes[] memory songsList = new songLikes[](k);\r\n        songLikes[] memory songsLikesCopy = new songLikes[](song_likes.length);\r\n        for(uint z=0;z<song_likes.length;z++){\r\n            songsLikesCopy[z] = song_likes[z];\r\n        }      \r\n        quickSort(songsLikesCopy, int(0), int(songsLikesCopy.length-1));\r\n        for(uint i=0;i<k;i++){\r\n            songsList[i] = songsLikesCopy[i];\r\n        }\r\n        return songsList;\r\n\r\n    }\r\n    // Get top artists\r\n    function getTopArtists(uint k) view public returns (artistLikes [] memory){\r\n        require(k<=artist_likes.length);\r\n        artistLikes[] memory artistsList = new artistLikes[](k);\r\n        artistLikes[] memory copyArtists = new artistLikes[](artist_likes.length);\r\n        \r\n        for(uint z=0;z<artists.length;z++){\r\n            copyArtists[z] = artist_likes[z];\r\n        }\r\n        quickSortArtists(copyArtists, int(0), int(copyArtists.length-1));\r\n        // bubbleSort(listener_count);\r\n        for(uint x =0;x<k;x++){\r\n            artistsList[x] = (copyArtists[x]);\r\n        }\r\n        \r\n        return artistsList;\r\n    }\r\n    \r\n\r\n    // Add to listener count - will be used just to get top listeners\r\n    function listenToSong() public {\r\n        bool found = false;\r\n        for(uint j=0;j<listener_count.length;j++){\r\n            if(listener_count[j].listener == msg.sender){\r\n                found = true;\r\n                listener_count[j].count+=1;\r\n            }\r\n        }\r\n        if (!found){\r\n            listener_count.push(listenerCount(msg.sender,1));\r\n        }\r\n        \r\n    }\r\n    \r\n    // Get top listeners\r\n    function getTopListeners(uint k) view public returns (listenerCount [] memory){\r\n        require(k<=listener_count.length);\r\n        listenerCount[] memory listenersList = new listenerCount[](k);\r\n        listenerCount[] memory copyListeners = new listenerCount[](listener_count.length);\r\n        for(uint z=0;z<listener_count.length;z++){\r\n            copyListeners[z] = listener_count[z];\r\n        }\r\n        quickSortListeners(copyListeners, int(0), int(copyListeners.length-1));\r\n        // bubbleSort(listener_count);\r\n        for(uint x =0;x<k;x++){\r\n            listenersList[x] = (copyListeners[x]);\r\n        }\r\n        \r\n        return listenersList;\r\n    }\r\n\r\n    function addMusicContent(string memory _songTitle, string memory _songProducer,\r\n    string memory _songArtist, string memory _songDate, string memory _genre,\r\n    string memory _albumName, string memory _hash_) public onlyUniqueHash(_hash_) onlyUniqueSongTitle(_songTitle){\r\n        // Song Name and hash both do not exist before\r\n        songTitles.push(_songTitle);\r\n        songHashes.push(_hash_);\r\n        bool x = true;\r\n        //Only insert into artists array if not exists\r\n        for (uint i=0;i<artists.length;i++){\r\n            if(keccak256(bytes(artists[i])) == keccak256(bytes(_songArtist))){\r\n                x = false;\r\n            }\r\n        }\r\n        if (x == true){\r\n            artists.push(_songArtist);\r\n        }\r\n        address [] memory a ;\r\n        // Map artist to song\r\n        artist_song_mapping[_songArtist].push(Music_data(_songTitle,_songProducer,\r\n        _songArtist, _songDate, _genre,_albumName,_hash_,0, a));\r\n\r\n        // Map genre to song\r\n        genre_song_mapping[_genre].push(Music_data(_songTitle,_songProducer,_songArtist,\r\n        _songDate, _genre, _albumName, _hash_,0,a));\r\n    }\r\n    function getURLofSong(string memory songName) public view returns(string memory){\r\n        for(uint j=0;j<artists.length;j++){\r\n            for(uint i=0;i<artist_song_mapping[artists[j]].length;i++){\r\n                if(keccak256(bytes(artist_song_mapping[artists[j]][i].songTitle)) == keccak256(bytes(songName))){\r\n                    return artist_song_mapping[artists[j]][i].hash_;\r\n                }\r\n            }\r\n        }\r\n        return \"\";\r\n    }\r\n\r\n}\r\n\r\n// let myins = await Music.deployed()\r\n// myins.listenToSong({from:accounts[0]})\r\n// myins.addMusicContent('abc','as','Adil','dsf','sdf','sddf','234scvdw')\r\n// myins.addMusicContent('abcd','as','Ali','dsf','sdf','sddf','234scvsdd')\r\n// myins.addMusicContent('ab3c','as','Ali','dsf','sdf','sddf','234scved')\r\n// myins.addMusicContent('aewbc','as','Ali','dsf','sdf','sddf','234sdscvd')\r\n// myins.getArtistSongs('Adil')\r\n// myins.likeSong('Adil', 'abc', {from:accounts[0]})\r\n// myins.getAllArtists();\r\n// myins.getAllSongs();  \r\n// myins.getTopKSongs(3);",
  "sourcePath": "G:\\BSCS(Adil)\\Semester 7\\Blockchain\\Project\\truffle\\contracts\\Music.sol",
  "compiler": {
    "name": "solc",
    "version": "0.8.10+commit.fc410830.Emscripten.clang"
  },
  "schemaVersion": "3.4.3",
  "updatedAt": "2021-12-20T11:27:49.137Z",
  "networkType": "ethereum",
  "devdoc": {
    "kind": "dev",
    "methods": {},
    "version": 1
  },
  "userdoc": {
    "kind": "user",
    "methods": {},
    "version": 1
  }
}